:1000000020C02DC0AAC06DC02AC029C028C027C0EA
:1000100026C025C04A414D4D4120506F7765722062
:100020005361766572206275696C74204465632043
:10003000203520323032322031393A30303A3533BF
:10004000000011241FBECFE9CDBF20E0A0E6B0E044
:1000500001C01D92A836B207E1F7AAD0FDC0D0CFEB
:10006000369A349BFECF349A84B195B10895CF93DC
:1000700084E084BB82E087B913B885E886B90000C4
:100080000000C8E0EDDFC150E9F7EADF96958795FB
:10009000BC0180E090E021EE30E040E050E0C3D0D1
:1000A000DC01CB0135E0B695A795979587953A95F4
:1000B000D1F7BC01CD01645D7E4F8F4F9F4F24EF80
:1000C00031E040E050E0AFD0609360007093610099
:1000D000809362009093630016B881E085BDCF9154
:1000E00008951F920F920FB60F9211244F935F93B2
:1000F0006F937F938F939F93AF93BF93809164008F
:1001000090916500A0916600B0916700AC01BD01BF
:100110004150510961097109409364005093650091
:100120006093660070936700892B8A2B8B2B19F4E0
:10013000C49813BE02C08AE682BF88B78D7F88BF8D
:10014000BF91AF919F918F917F916F915F914F91EF
:100150000F900FBE0F901F9018951F920F920FB621
:100160000F9211248F939F93AF93BF93B39903C0C2
:10017000C49A13BE14C08091600090916100A09158
:100180006200B09163008093640090936500A09337
:100190006600B09367008AE682BF83E083BFBF91A9
:1001A000AF919F918F910F900FBE0F901F90189558
:1001B0000FB6F894A89581B5886181BD11BC0FBEBA
:1001C000C2E0C8BB80E187BB00000000B19905C058
:1001D000C49A85B7877E806120C088E085BB80E2B5
:1001E0008BBF45DFC49A8091600090916100A0911F
:1001F0006200B09163008093640090936500A093C7
:100200006600B0936700C9BF18BE1FBC8AE682BFF4
:1002100083E083BF789485B7877E85BF85B780628A
:1002200085BF8895FBCFEE27FF27AA27BB2708C0ED
:10023000A20FB31FE41FF51F220F331F441F551FCA
:10024000969587957795679598F37040A9F70097ED
:0C02500099F7BD01CF010895F894FFCF8D
:00000001FF
